:100922005387BF75985053877FE4F5BA43A2407C42
:100932000324F0FD74FF3CFCE4F5BD8CBFAF05EF72
:10094200F5BE75BD035391FE43920143910253924A
:0B095200FDC20053B8EF53B7EFD2AC6A
:01095D002277
:030023000209D8F7
:0D09D800309802C298309904C299C20032D2
:0809E5002000FDD2008F9922D1
:0309ED00AF99229D
:1009BA00012100182206DE067F061F05C9057405F7
:0D09CA002804DD04970456041703DC03A481
:0408E1008E088F09E5
:1008E5007B64E589C4540F75F010A4FFAEF00FBF0B
:1008F50000010E8F89AE08AF09EBFD7C0012088C54
:100905008E088F09C3E49509E49508F58CE509F48B
:0C09150004F58AD28C308DFDC28DDBE829
:0109210022B3
:04095E00AD07AC062F
:100962007B64758911C297758CEEE4F58AD28C206E
:100972008D17C3E49DE49CF58DEDF404F58BD28EC6
:0D098200B297308FFDC28F80E6C28DDBDAA8
:01098F002245
:10099000E4F591D2AF1209227F611209E51209ED47
:1009A000E52114600C0470F8AF25AE2412095E80B6
:0A09B000EF7FE07E921208E180E67E
:03000000020800F3
:0C080000787FE4F6D8FD758139020847C6
:10088C00BC000BBE0029EF8DF084FFADF022E4CC50
:10089C00F875F008EF2FFFEE33FEEC33FCEE9DEC19
:1008AC00984005FCEE9DFE0FD5F0E9E4CEFD22ED5F
:1008BC00F8F5F0EE8420D21CFEADF075F008EF2FA9
:1008CC00FFED33FD4007985006D5F0F222C398FD9A
:0508DC000FD5F0EA2237
:10080C00020990E493A3F8E493A34003F68001F269
:10081C0008DFF48029E493A3F85407240CC8C333ED
:10082C00C4540F4420C8834004F456800146F6DFBC
:10083C00E4800B01020408102040809009BAE47E89
:10084C00019360BCA3FF543F30E509541FFEE493B1
:10085C00A360010ECF54C025E060A840B8E493A378
:10086C00FAE493A3F8E493A3C8C582C8CAC583CAA3
:10087C00F0A3C8C582C8CAC583CADFE9DEE780BE5B
:0109D700001F
:00000001FF
